:100000000C942A000C943F000C943F000C943F0089
:100010000C943F000C943F000C943F000C943F0064
:100020000C943F000C943F000C943F000C943F0054
:100030000C943F000C943F000C943F000C943F0044
:100040000C943F000C943F000C943F000C943F0034
:100050000C943F0011241FBECFE5D8E0DEBFCDBF1A
:1000600010E0A0E6B0E0E2E5F5E002C005900D92F8
:10007000AA38B107D9F70E9414020C94A7020C9475
:100080000000442319F04130C9F10895813091F006
:1000900028F08230D9F0833029F108952AB381E025
:1000A00090E002C0880F991F6A95E2F7809582233D
:1000B0008ABB089527B381E090E002C0880F991FA2
:1000C0006A95E2F78095822387BB089524B381E087
:1000D00090E002C0880F991F6A95E2F7809582230D
:1000E00084BB089521B381E090E002C0880F991F7E
:1000F0006A95E2F78095822381BB0895813089F06B
:1001000028F08230C9F0833011F108952AB381E0DC
:1001100090E002C0880F991F6A95E2F7822B8ABB94
:10012000089527B381E090E002C0880F991F6A9577
:10013000E2F7822B87BB089524B381E090E002C0F0
:10014000880F991F6A95E2F7822B84BB089521B32B
:1001500081E090E002C0880F991F6A95E2F7822B38
:1001600081BB0895442319F04130C9F108958130CD
:1001700091F028F08230D9F0833029F108952BB323
:1001800081E090E002C0880F991F6A95E2F78095A0
:1001900082238BBB089528B381E090E002C0880FD2
:1001A000991F6A95E2F78095822388BB089525B34D
:1001B00081E090E002C0880F991F6A95E2F7809570
:1001C000822385BB089522B381E090E002C0880FAE
:1001D000991F6A95E2F78095822382BB089581304A
:1001E00089F028F08230C9F0833011F108952BB3E3
:1001F00081E090E002C0880F991F6A95E2F7822B98
:100200008BBB089528B381E090E002C0880F991F4E
:100210006A95E2F7822B88BB089525B381E090E0D0
:1002200002C0880F991F6A95E2F7822B85BB08955B
:1002300022B381E090E002C0880F991F6A95E2F72F
:10024000822B82BB0895CF93C82F40E061E081E00C
:100250000E94B20040E062E081E00E94B20040E013
:1002600063E081E00E94B2008BB39C2F907F8F707F
:10027000892B8BBB41E063E081E00E94B2008FE9F3
:100280009FE00197F1F700C0000040E063E081E0EB
:100290000E94B2002BB330E1C39FC0011124922F02
:1002A0009F70892B8BBB41E063E081E00E94B2002C
:1002B0008FE99FE00197F1F700C0000040E063E0A4
:1002C00081E00E94B2008FE19EE40197F1F700C047
:1002D0000000CF91089541E061E081E00E9441007B
:1002E00041E062E081E00E94410041E063E081E0A2
:1002F0000E94410041E064E080E00E94410041E052
:1003000065E080E00E94410041E066E080E00E94FC
:10031000410041E067E080E00E94410083E30E94E9
:10032000230182E30E94230188E20E94230182E0EC
:100330000E9423018CE00E94230181E00E9423019E
:100340000895CF93C82F41E061E081E00E94B200A0
:1003500040E062E081E00E94B20040E063E081E0C2
:100360000E94B2008BB39C2F907F8F70892B8BBB28
:1003700041E063E081E00E94B2008FE99FE00197D5
:10038000F1F700C0000040E063E081E00E94B200AD
:100390002BB330E1C39FC0011124922F9F70892B92
:1003A0008BBB41E063E081E00E94B2008FE99FE0F7
:1003B0000197F1F700C0000040E063E081E00E9497
:1003C000B2008FE19EE40197F1F700C00000CF91E9
:1003D0000895CF93DF93EC018881882361F0219603
:1003E0000E94A1018FE39CE90197F1F700C0000092
:1003F00089918111F5CFDF91CF91089581E00E941D
:100400002301089541E063E083E00E9441000895E4
:1004100041E063E083E00E94B200089540E063E0C1
:1004200083E00E94B20008950E949C020E94020292
:100430000E946B010E9475020E9485020E94A30225
:100440000E94A3028830D9F018F4873031F0F6CF3B
:100450008A3039F18B30B9F1F1CF80E690E00E941B
:10046000E9010E9408022FEF81EE94E021508040C4
:100470009040E1F700C000000E94FE01DFCF87E658
:1004800090E00E94E9010E940E022FEF81EE94E0BD
:10049000215080409040E1F700C000000E94FE0122
:1004A000CDCF8FE690E00E94E9010E9491022FEFEC
:1004B00081EE94E0215080409040E1F700C00000C0
:1004C0000E94FE01BBCF8CE790E00E94E9010E94F0
:1004D0008B022FEF81EE94E0215080409040E1F7B5
:1004E00000C000000E94FE01A9CF41E064E083E06B
:1004F0000E94410041E063E082E00E94410041E04F
:1005000064E082E00E944100089541E064E083E0FD
:100510000E94B200089540E064E083E00E94B200CF
:10052000089541E063E082E00E94B20040E064E0B0
:1005300082E00E94B2000895BD98BE9ABF98BC9810
:1005400083E48DB90895779BFECF8FB10895F89419
:02055000FFCFDB
:100552006C6564206F6E006C6564206F6666006D6A
:100562006F746F72206F6E65206F6E006D6F746FA7
:0A05720072206F6E65206F66660050
:00000001FF
