:100000000C942A000C943C000C943C000C943C0092
:100010000C943C000C943C000C943C000C943C0070
:100020000C943C000C943C000C943C000C943C0060
:100030000C943C000C943C000C943C000C943C0050
:100040000C943C000C943C000C943C000C943C0040
:100050000C943C0011241FBECFE5D8E0DEBFCDBF1D
:1000600020E0A0E6B0E001C01D92A036B207E1F7A3
:100070000E943E000C9473000C9400000E946700E4
:100080000E945C000E946F00813321F487E00E948F
:100090006300F8CF823321F488E00E946300F2CF3E
:1000A000853321F48AE00E946300ECCF863351F758
:1000B0008BE00E946300E6CFBD9ABE98BF9ABC9ABF
:1000C00083E58DB908958FB9779BFECF089588E1B8
:1000D0008AB986E880BD86E089B910BC08955F9B27
:0A00E000FECF8CB10895F894FFCF15
:00000001FF
